:200000000C94A0000C949B160C9474160C94C8000C94C8000C94C8000C94C2160C94C8000D
:200020000C94C8000C94C8000C94C8000C94D9160C94C8000C94C8000C94C8000C94C80059
:200040000C942A160C94C8000C94F8150C94D2150C94C8000C94C8000C94C8000C94C80084
:200060000C94C8000C94C80000000000240027002A0000000000250028002B0000000000C3
:20008000230026002900040404040404040402020202020203030303030301020408102071
:2000A0004080010204081020010204081020000000080002010000030407000000000000E9
:2000C000000072740492740448940478C40C6D656D203D200052463935207265616479000D
:2000E00053657474696E67206C6F6E6752616E676520636F6E66696775726174696F6E2E9F
:200100002E2E006672657175656E63793B203439342E302E2E2E2000646F6E6500696E69C7
:2001200074206661696C656400696E697469616C697A696E67206E6F646520230000FD179E
:2001400011241FBECFEFD8E0DEBFCDBF12E0A0E0B1E0E0E2FDE302C005900D92A432B107C5
:20016000D9F725E0A4E2B2E001C01D92AF3FB207E1F710E0C0EAD0E004C02197FE010E943C
:20018000711ECF39D107C9F70E9463180C948E1E0C940000E82FF0E0EE0FFF1FE050FF4FA7
:2001A00071836083813039F080916900836080936900E89A0895809169008C6080936900B4
:2001C000E99A0895AF92BF92CF92DF92EF92FF920F931F93CF93DF936C017B018B01040FD9
:2001E000151FEB015E01AE18BF08C017D10759F06991D601ED91FC910190F081E02DC60149
:200200000995892B79F7C501DF91CF911F910F91FF90EF90DF90CF90BF90AF900895FC0132
:20022000538D448D252F30E0842F90E0821B930B541710F0CF96089501970895FC01918D8E
:20024000828D981761F0A28DAE0FBF2FB11D5D968C91928D9F5F9F73928F90E008958FEFFC
:200260009FEF0895FC01918D828D981731F0828DE80FF11D858D90E008958FEF9FEF08957D
:20028000FC01918D228D892F90E0805C9F4F821B91098F739927089583E394E00E9440014F
:2002A00021E0892B09F420E0822F089580E090E0892B29F00E944C0181110C9400000895E3
:2002C000FC01A48DA80FB92FB11DA35ABF4F2C91848D90E001968F739927848FA689B7895F
:2002E0002C93A089B1898C91837080648C93938D848D981306C00288F389E02D80818F7D07
:2003000080830895EF92FF920F931F93CF93DF93EC0181E0888F9B8D8C8D98131AC0E88967
:20032000F989808185FF15C09FB7F894EE89FF896083E889F98980818370806480839FBFF1
:2003400081E090E0DF91CF911F910F91FF90EF900895F62E0B8D10E00F5F1F4F0F731127BF
:20036000E02E8C8D8E110CC00FB607FCFACFE889F989808185FFF5CFCE010E946001F1CF8C
:20038000EB8DEC0FFD2FF11DE35AFF4FF0829FB7F8940B8FEA89FB8980818062CFCF0F931D
:2003A0001F93CF93DF938C01D0E0C0E0F801EC0FFD1F6491662341F083E394E00E9482011C
:2003C000892B11F02196F2CFCE01DF91CF911F910F910895CF93DF93EC01888D8823B9F03A
:2003E000AA89BB89E889F9898C9185FD03C0808186FD0DC00FB607FCF7CF8C9185FFF2CFF0
:20040000808185FFEDCFCE010E946001E9CFDF91CF910895833081F028F4813099F0823078
:20042000A9F008958730A9F08830C9F08430B1F4809180008F7D03C0809180008F77809362
:200440008000089584B58F7784BD089584B58F7DFBCF8091B0008F778093B000089580911B
:20046000B0008F7DF9CFCF93DF93282F30E0F901E255FF4F8491F901E656FF4FD491F90146
:20048000EA57FF4FC491CC23A1F081110E940A02EC2FF0E0EE0FFF1FE458FF4FA591B491AD
:2004A000EC91ED2381E090E009F480E0DF91CF91089580E090E0FACF1F93CF93DF93282F9E
:2004C00030E0F901E255FF4F8491F901E656FF4FD491F901EA57FF4FC491CC23A9F0162FE4
:2004E00081110E940A02EC2FF0E0EE0FFF1FEE58FF4FA591B4918FB7F894EC91111108C06E
:20050000D095DE23DC938FBFDF91CF911F910895DE2BF8CFCF93DF9390E0FC01E656FF4F00
:2005200024918A579F4FFC0184918823D1F090E0880F991FFC01E859FF4FA591B491FC01F6
:20054000EE58FF4FC591D49161110EC09FB7F8948C91E22FE0958E238C932881E223E8839E
:200560009FBFDF91CF9108958FB7F894EC91E22BEC938FBFF6CF3FB7F894809134029091D8
:200580003502A0913602B091370226B5A89B05C02F3F19F00196A11DB11D3FBFBA2FA92F05
:2005A000982F8827BC01CD01620F711D811D911D42E0660F771F881F991F4A95D1F708951F
:2005C0008F929F92AF92BF92CF92DF92EF92FF926B017C010E94BB024B015C01C114D104B8
:2005E000E104F104B9F00E94BB02681979098A099B09683E73408105910580F321E0C21A1A
:20060000D108E108F10888EE880E83E0981EA11CB11CE4CFFF90EF90DF90CF90BF90AF9053
:200620009F908F9008952FB7F894609130027091310280913202909133022FBF0895089543
:200640008BEF0895CF93DF93FC01228133812230310569F0EC01678D858D0E945C0260E047
:200660008C8D0E945C0282E090E09B838A83DF91CF910895FF920F931F93CF93DF93EC0151
:20068000162FF42E0FB7F894898D9A8DDC01ED91FC910088F189E02D099560E08B8D0E94D5
:2006A0005C02898D9A8D612F6068DC01ED91FC910190F081E02D0995182F898D9A8DDC0151
:2006C000ED91FC910190F081E02D6F2D099561E08B8D0E945C02898D9A8DDC01ED91FC9148
:2006E0000288F389E02D09950FBF812FDF91CF911F910F91FF9008950F931F93CF938C013C
:20070000C62F65317CF047E06DE40E943A03C3504BEF4C0F406869E0C801CF911F910F9179
:200720000C943A0344E06DE40E943A03F1CFCF93DF93EC018A819B81059771F047E061E07B
:20074000CE010E943A0340E860E4CE010E943A0385E090E09B838A838A819B810597E1F33A
:200760008E89DF91CF9108950F931F93CF93DF93EC018B01FB0140816DE10E943A03F80171
:2007800041816EE1CE010E943A03F801428166E2CE01DF91CF911F910F910C943A03CF9368
:2007A000DF93FC01228133812130310549F0EC0140E061E00E943A0381E090E09B838A838A
:2007C00081E0DF91CF910895CF93DF93FC01228133812230310549F0EC0141E061E00E9471
:2007E0003A0382E090E09B838A83DF91CF910895BF92CF92DF92EF92FF920F931F93CF9367
:20080000DF934C3F60F0E12C8E2DDF91CF911F910F91FF90EF90DF90CF90BF900895142F98
:20082000072FF62EEC01E881F9810484F585E02D0995CE010E94E403E881F9810288F389A0
:20084000E02DCE010995E82E8823E9F240E06DE0CE010E943A034A8560E0CE010E943A03AA
:200860004B8560E0CE010E943A034C8560E0CE010E943A034D8560E0CE010E943A03BFB6C6
:20088000F894898D9A8DDC01ED91FC910088F189E02D099560E08B8D0E945C02898D9A8D65
:2008A000DC01ED91FC910190F081E02D60E80995CF2CD02E012F015068F0898D9A8DF60155
:2008C00061916F01DC01ED91FC910190F081E02D0995F1CF61E08B8D0E945C02898D9A8DCB
:2008E000DC01ED91FC910288F389E02D0995BFBE44E0410F62E2CE010E943A038A819B8155
:20090000039709F481CF43E061E0CE010E943A0340E460E4CE010E943A0383E090E09B83D7
:200920008A8372CFCF93DF93FC012281338123303105C9F0EC0182819381049771F045E0DA
:2009400061E0CF010E943A0340E060E4CE010E943A0384E090E09B838A83C25EDE4F888140
:20096000DF91CF91089580E0FBCF0F931F93CF93DF93EC01162F0FB7F89460E08B8D0E943A
:200980005C02898D9A8DDC01ED91FC910190F081E02D612F0995898D9A8DDC01ED91FC9172
:2009A0000190F081E02D60E00995182F61E08B8D0E945C020FBF812FDF91CF911F910F910C
:2009C0000895CF92DF92EF92FF921F93CF93DF93EC0162E10E94B504182F6CE1CE010E9480
:2009E000B5042A813B812430310529F5829586958695837091E0892780FBEE24E0F8F12C4C
:200A0000812F807AE82AEF28B1F0888999890196998B888B4FEF62E1CE010E943A034FEFF4
:200A200062E1CE01DF91CF911F91FF90EF90DF90CF900C943A038A819B81049711F416FD91
:200A40000FC08A819B81039711F413FDBFC08A819B810597F9F612FFDDCF11701E8BA1C078
:200A600063E1CE010E94B504F82E60E1CE010E94B504482F6DE0CE010E943A03EFB6F894D4
:200A8000898D9A8DDC01ED91FC910088F189E02D099560E08B8D0E945C02898D9A8DDC0112
:200AA000ED91FC910190F081E02D60E009956E01BFE1CB0ED11C1F2D115070F0898D9A8D1F
:200AC000DC01ED91FC910190F081E02D60E00995F60181936F01F0CF61E08B8D0E945C02AE
:200AE000898D9A8DDC01ED91FC910288F389E02D0995EFBEFE8E4FEF62E1CE010E943A03B8
:200B000069E1CE010E94B5047E01B0EEEB1ABEEFFB0A87FD8D5F85958595F70180836AE1A3
:200B2000CE010E94B50490E09F878E87D7012C918E859F8527FF39C0820F911D27FD9A9563
:200B40009F878E87FE01E15EFE4F80818823C9F18E859F858D5991099F878E878E8DFE015D
:200B6000E25EFE4F8430C8F08F8D8E8388A18F8389A188878AA189878D81811107C09E811A
:200B80008C81981719F08E818F3F39F48A899B8901969B8B8A8B81E080838081882309F470
:200BA00039CFCE010E94E40335CF24E0880F991F2A95E1F76FE070E00E94491E7F876E8744
:200BC000C1CF8E859F85845A9109C6CF8C899D8901969D8B8C8BE5CF80912D0290912E02EB
:200BE000009711F00C94E104089580912B0290912C02009711F00C94E104089580912902B8
:200C000090912A02009711F00C94E1040895CF93DF93EC01898D9A8DDC01ED91FC91068061
:200C2000F781E02D099561E08B8D0E948A0261E08B8D0E945C0264E670E080E090E00E94A5
:200C4000E00281E0DF91CF9108950895FC01413029F481E0DB012C919481291380E0089574
:200C60002FB7F89491E0662339F092E0613021F082E08093270290E080912602892B8093BD
:200C8000260280912702811103C081E0809327022FBF089580912702882361F09FB7F8945D
:200CA0002091270280912502213019F48DBB9FBF08958FBF0895FC01308521858091270204
:200CC000882381F09FB7F89480912702813069F48DB3809325024DB380912602809584235F
:200CE0008DBB9FBF3CBD2DBD089590932502FACF9FB7F89480912402882319F0815080930A
:200D0000240280912402811105C08CB58F7B8CBD109227029FBF08958CB58F778CBD089598
:200D20008CB580688CBD08956EBD00000DB407FEFDCF8EB50895FC01738362830895FC0195
:200D4000778366830895FC0175836483089508950895FC01848995890895FC018289938977
:200D60000895FC0180899189089580E00895FC01738362830895FC01828193810895FC01F9
:200D8000868597850895FC0181850895FC0180850895FC0187810895FC0186810895409538
:200DA000FC0125854223642B65870895FC0164870895FC0163870895FC0162870895FC0186
:200DC00064830895FC01658308958F929F92AF92BF92CF92DF92EF92FF92CF93DF93EC0184
:200DE0006B010E9413034B015C01F12CE12C0E941303681979098A099B096C157D058E0574
:200E00009F0580F48A819B81039789F381E0DF91CF91FF90EF90DF90CF90BF90AF909F90B3
:200E20008F90089580E0F3CFFC012281338123303105D1F381E008958F929F92AF92BF9251
:200E4000CF92DF92EF92FF92CF93DF93EC016B010E9413034B015C01F12CE12C0E9413033E
:200E6000681979098A099B096C157D058E059F05A0F4E881F9810280F381E02DCE01099517
:200E8000882361F3DF91CF91FF90EF90DF90CF90BF90AF909F908F90089580E0F3CFCF93AA
:200EA000DF93EC01E881F9810280F381E02DCE0109958823B9F3DF91CF91089581E00895BE
:200EC000DC018D919C91DC01ED91FC9104A0F5A1E02D0994DC018D919C91DC01ED91FC910E
:200EE0000088F189E02D0994DC018D919C91DC01ED91FC910484F585E02D0994FF920F9357
:200F00001F93CF93DF93EC018B01F42E88819981DC01ED91FC91008CF18DE02D622F09955F
:200F200088819981DC01ED91FC910680F781E02D4F2DB801DF91CF911F910F91FF9009941A
:200F4000FF920F931F93CF93DF931F92CDB7DEB78C01F42EDC018D919C91DC01ED91FC914F
:200F6000048CF58DE02D0995F80180819181DC01ED91FC91068CF78DE02D40E060E8099597
:200F800081E289832F2D41E0BE016F5F7F4FC8010E947E07C8010E9474070F90DF91CF91C5
:200FA0001F910F91FF900895FC01A281B3818081918130E020E0A817B90750F4CD01019616
:200FC000938382836C93A281B3811C9221E030E084819581820F931F958384830895CF9365
:200FE000DF93DC0112962D913C911397FB01460F571F1296CD91DC9113978D919C911197EE
:20100000C817D90768F4E417F50751F08191BE016F5F7F4F13967C936E9312978883E9CFEB
:20102000188212968D919C91821B930BDF91CF910895EF92FF920F931F93CF93DF93CDB7BD
:20104000DEB766970FB6F894DEBF0FBECDBF8C01CB01FE0177969F014AE0E42EF12CB701A1
:201060000E94491E805D8293CB010097C1F7A9014E1B5F0BBF01C8010E94EF07F80124811E
:201080003581820F931F9583848366960FB6F894DEBF0FBECDBFDF91CF911F910F91FF9046
:2010A000EF9008958F929F92AF92BF92CF92DF92EF92FF920F931F93CF93DF93CDB7DEB70B
:2010C00066970FB6F894DEBF0FBECDBF7C018E01095E1F4F68018AE0882E912CA12CB12CFB
:2010E000CB01BA01A50194010E94051D942F852F605DF80162938F01A901692F782F411579
:2011000051056105710561F7A6014E1B5F0BBF01C7010E94EF07F70124813581820F931F15
:201120009583848366960FB6F894DEBF0FBECDBFDF91CF911F910F91FF90EF90DF90CF9051
:20114000BF90AF909F908F9008958F929F92AF92BF920F931F93CF93DF93CDB7DEB7A197B9
:201160000FB6F894DEBF0FBECDBF19A2423008F44AE08E010F5D1F4F842E912CB12CA12C53
:20118000A50194010E94051DE62FB901CA01EA3044F5E05DD801EE938D01232B242B252B51
:2011A00079F790E080E0109769F0FD0101900020E9F73197AF014A1B5B0BBD0183E394E085
:2011C0000E94E200A1960FB6F894DEBF0FBECDBFDF91CF911F910F91BF90AF909F908F9011
:2011E0000895E95CD7CF42E050E06DED71E083E394E00C94E200CF93DF930E94CF01EC01DB
:201200000E94F3088C0F9D1FDF91CF910895CF93DF93EC01FB0101900020E9F73197AF01A7
:20122000461B570B0E94EF072C813D81820F931F9D838C83DF91CF910895FF920F931F9324
:20124000CF93DF936115710549F46FEE71E0DF91CF911F910F91FF900C9407098B01EC010B
:2012600062E2CE010E94D407F80161918F01662351F0E0EEF1E0F080FF2099F3818168175E
:2012800059F03296F8CF62E2CE01DF91CF911F910F91FF900C94D4076CE5CE010E94D4079C
:2012A0006F2DDFCF2F923F924F925F926F927F928F929F92AF92BF92CF92DF92EF92FF92A6
:2012C0000F931F93CF93DF93CDB7DEB76A970FB6F894DEBF0FBECDBF8C014B01DC01149625
:2012E0008C9114978F77863009F47CC2C8F4823000F1843008F05CC2F80142815381608195
:201300007181C4010E94EF07D40114962D913C911597820F931F15969C938E931497F4C12A
:201320008C3099F148F4883009F457C28A3009F445C26FEE71E063C2803209F40CC280349B
:20134000C1F76BE5C4010E94D407F801008111810115110509F4FAC1B401C8010E945209D8
:20136000D80115968C91882309F4F0C1B8E08B02C0011124080F191F0115110509F4E6C139
:201380006CE2C4010E94D407E3CFF8014080518062807380A3019201C301B2010E94A71B9A
:2013A0008111C7CF20E030E0A901C301B2010E94A71B882379F0A3019201C301B2010E940C
:2013C000371D9B01AC01C301B2010E94A71B882309F4AFCF20E030E0A901C301B2010E949C
:2013E000A71B87FF08C06DE2C4010E94D40777FA709477F8709420E836E948E15BE4C30111
:20140000B2010E94441E87FD79C049E5E42E41E0F42E59E2C52E51E0D52E61E4A62E61E019
:20142000B62E00E210E0312C212CD7015E914E913E912E917D01C301B2010E94441E87FD9B
:201440000DC0F6012489358946895789C301B2010E940D1C2B013C01200E311E1595079540
:20146000F4E0CF1AD108AE14BF04F9F62FEF2B8B20E030E0A901C301B2010E94441E18162B
:201480000CF043C02CEA35EC47E257E3C301B2010E94A71B1816CCF19B89A4E09A02500158
:2014A0001124D12CC12CBB89BF3F79F17501EC0CFD1CF701EF5EFE4FA3019201608171813E
:2014C000828193810E94441E18167CF4F701EF5BFE4F2081318142815381C301B2010E94C1
:2014E0000D1C2B013C01201A310A15950795EB89E150EB8BF4E0CF1AD108D5CF00E210E078
:2015000085E08B8B312C212CB3CFC301B2010E94151E6B8B7C8B8D8B9E8B6B017C0116E0BB
:2015200080E492E4AFE0B0E08F8B988FA98FBA8F012F11509AE0C916D104E104F104C8F09F
:201540006F89788D898D9A8D2AE030E040E050E00E94051D2F8B388F498F5A8FC701B60162
:201560002AE030E040E050E00E94051D69017A01DFCF6B897C898D899E890E94AC1B9B016F
:20158000AC01C301B2010E94361D6B017C016F89788D898D9A8D0E94AC1B9B01AC01C70195
:2015A000B6010E940D1C2B013C010E94151E6B017C010E94AC1B9B01AC01C301B2010E94B7
:2015C000361D9B01AC010E94371D0E94151EC60ED71EE81EF91E8F89988DA98DBA8DC81626
:2015E000D906EA06FB0600F18B899C89AD89BE890196A11DB11D8B8B9C8BAD8BBE8B21145E
:20160000310439F10A97A105B10518F19FEF291A390AC12CD12C760181E090E0A0E0B0E00F
:201620008B8B9C8BAD8BBE8B9AE0492E512C612C712CC701B601A30192010E94051D672B48
:20164000682B692B51F4101644F469017A010150F0CFC12CD12C7601E7CF4B895C896D8905
:201660007E89C4010E945208002309F43FC05E0191E1A90EB11C102FBA8AA98A8AE0482E98
:20168000512C612C712C115068F0C701B601A30192010E94051D605DD5016E935D01690114
:2016A0007A01F1CF802F90E0BC0160957095E989FA89E81BF90B31978EE2808344275527FB
:2016C000461B570BE1E1F0E0EC0FFD1F6E0F7F1FC4010E94EF07D40114962D913C91159770
:2016E000820F931F15969C938E93149737FE25C064EF71E0C4010E94070966277727621926
:201700007309C4010E9419086A960FB6F894DEBF0FBECDBFDF91CF911F910F91FF90EF9050
:20172000DF90CF90BF90AF909F908F907F906F905F904F903F902F9008952114310421F37A
:2017400065E6C4010E94D407B101DBCF6DE5C4010E94D407D9CF6BE7C4010E94D407F801D7
:20176000008111810115110509F1D80116966D917C91C4010E941D096AE3C4010E94D40784
:20178000B401C8010E945209F8018581882371F0F8E08F02C0011124080F191F01151105E9
:2017A00029F06CE2C4010E94D407DCCF6DE7CFCF6D917C91C4010E941D09A6CFF801C0809D
:2017C000D180E280F3806DE2C4010E94D407B701A601C4010E94520897CF4D915D916D9102
:2017E0007C91F7CFF80180819181A281B38167EF71E0892B8A2B8B2B11F46CEF71E0C40177
:201800000E94070981CFCF92DF92EF92FF92CF93DF936C01990FEE08FF08F7FE1DC06DE2DB
:2018200083E394E00E948201EC0166277727CB016C197D098E099F094AE00E94A508C80F2B
:20184000D91F0E94F3088C0F9D1FDF91CF91FF90EF90DF90CF9008954AE0C701B6010E9408
:20186000A508EC01EECFDF92EF92FF920F931F93CF93DF93EC01162F042FD22EE62EF12CD0
:201880008A819B81DC01ED91FC910084F185E02D099597012B5F3F4F8217130650F1D0928F
:2018A00035030093340310923603FE01E35FFE4F808191E0980F9083809337031092380367
:2018C000A7016AE372E089E393E00E947C1E45E0410FE881F9810280F381E02D64E373E0B1
:2018E000CE01DF91CF911F910F91FF90EF90DF90099481E0DF91CF911F910F91FF90EF9050
:20190000DF900895CF93DF93FC01E05FFE4F30E020E07081A9014F5F5F4F761321C0EC0100
:20192000BA01660F771F640F751FCB01835F9E4F49E050E0421B530B9A01220F331F420FBC
:20194000531F605F7E4F6C0F7D1F8C0F9D1F0E947C1EC35DDE4F188281E0DF91CF9108952A
:201960009A0133964A305105A1F680E0F6CFCF93DF93EC01C05FDE4FDE01F0E0E0E02C913E
:20198000261313C09F01220F331F2E0F3F1F820F931FFC01EF5EFE4F40838E5E9E4F22E005
:2019A000FC012083DF91CF91089531961396EA30F10529F7DC01AE5EBE4FF0E0E0E02C9137
:2019C00021110DC09F01220F331F2E0F3F1F820F931FFC01E05FFE4F60833196DDCF319661
:2019E0001396EA30F10559F7FC01ED5EFE4F2BE1DE0101900D922A95E1F7FC01E35DFE4F0D
:201A00001082825D9E4F22E03A81311103C0688349832A832396C817D907B1F7C3CFCF922F
:201A2000DF92EF92FF920F931F93CF93DF93EB01423008F445C02D812230A9F5F42E8C014F
:201A40006C0182E0C80ED11CC6010E946007482F6F81C8010E94B70C88EFE82EEF0CFE0108
:201A6000389649EF4F0DFF24F394F41641F0919121E02F0DD80114968C91981312C06F2D07
:201A800070E0685F7F4FC60FD71FFE14C8F4C6010E946007F3946991482FC8010E94B70CD2
:201AA000F4CFF22EE2CF233059F46E81DF91CF911F910F91FF90EF90DF90CF900C94820CD9
:201AC000DF91CF911F910F91FF90EF90DF90CF9008952F923F924F925F926F927F928F92D6
:201AE0009F92AF92BF92CF92DF92EF92FF920F931F93CF93DF9300D01F92CDB7DEB76C0110
:201B00003B015A013B832A838FEF8983D60112968D919C91DC01ED91FC910280F381E02D84
:201B20000995811102C0412C8DC0F60182819381DC01ED91FC910480F581E02DAE014F5F9F
:201B40005F4F64E373E00995482E882361F34601B2E08B0E911CC4010E946007582EF601C0
:201B600082819381DC01ED91FC9102A0F3A1E02D0995282EF60182819381DC01ED91FC9139
:201B800006A0F7A1E02D0995382EF60182819381DC01ED91FC9100A4F1A5E02D099587FD97
:201BA000C2CFF6018481821105C0452D632DC4010E94A007F601E50DF11D8585831509F49A
:201BC000B2CF3586D601ED91FC910190F081E02D498164E373E0C601099580913403F601D0
:201BE0009481891719F08F3F09F043C0A114B10421F080913503D5018C93EA81FB813097F6
:201C000019F08091340380830115110521F080913703D8018C93E114F10421F080913803A9
:201C2000F701808389818550D3019C91891708F48C93F301408150E069E373E08AE392E0AB
:201C40000E947C1E842D0F900F900F90DF91CF911F910F91FF90EF90DF90CF90BF90AF9030
:201C60009F908F907F906F905F904F903F902F9008958091360391E0980F90933603E25F10
:201C8000FE4F9081891708F04ECF31968081882309F449CFD601ED91FC910280F381E02DC4
:201CA000498164E373E0C60109953DCF4F925F926F927F929F92AF92BF92CF92DF92EF9255
:201CC000FF920F931F93CF93DF931F92CDB7DEB76C01962E81E080933A0280933B0260935D
:201CE0003C02F60124814FEF63E0C6010E94330C882399F010E0812F0F90DF91CF911F91EE
:201D00000F91FF90EF90DF90CF90BF90AF909F907F906F905F904F9008958AEF89830E94EA
:201D200013032B013C01F0EA4F0EFFE05F1E611C711C560122E0A20EB11C0E941303A30155
:201D40009201261B370B480B590BCA01B901161617061806190674F6C5010E946A078823BD
:201D600061F3F12CE12C10E000E030E020E050E040E0BE016F5F7F4FC6010E94690D182F34
:201D80008823D9F289818230C0F280913A028230A1F6C5010E946007482F692DC6010E9484
:201DA000B70CA9CFCF92DF92EF92FF920F931F93CF93DF93EC017B018A01E881F981028083
:201DC000F381E02D0995D82E882329F1E114F104D1F001151105B9F0CFB6F8948E8D83509A
:201DE000990BF8012081281719061CF08E8D84508083F801408150E0BE016D5D7F4FC70140
:201E00000E947C1ECFBE8FB7F894FE01E25EFE4F10821E8E8FBF8D2DDF91CF911F910F9135
:201E2000FF90EF90DF90CF900895EF92FF920F931F93CF93DF9300D01F92CDB7DEB78C01C8
:201E40000E940706E82E81110CC0E12C8E2D0F900F900F90DF91CF911F910F91FF90EF908C
:201E60000895D8015C968C91823009F48DC0FF24F394833051F7F801818D928DDC01ED91BB
:201E8000FC910488F589E02D6F2D099540E861E0C8010E943A036AE070E080E090E00E9447
:201EA000E00261E0C8010E94B504803871F660E0F801848D0E948A02D8015D968C915D9767
:201EC0008F3F59F480912802843008F0BECF91E0980F909328025D968C93F801858DE82FDA
:201EE000F0E0EE0FFF1FE75DFD4F118300836EEF75E0882349F065EF75E0813029F0823095
:201F000009F0A3CF6CEE75E08F2D0E94CA0040E06EE0C8010E943A0340E06FE0C8010E948F
:201F20003A03C8010E94E40343E050E062EC70E0CE0101960E949E1BBE016F5F7F4FC8013C
:201F40000E94B40340E060E2C8010E943A0348E061E2C8010E943A034CE666E0C8010E9428
:201F60003A0340E867E0C8010E943A0340E068E0C8010E943A03F801E15EFE4F10826DE099
:201F8000C8010E947C0362CFF12C75CF0E94771E2F923F924F925F926F927F928F929F92C6
:201FA000AF92BF92CF92DF92EF92FF920F931F93CF93DF9300D000D01F92CDB7DEB7DB013D
:201FC0001C911F3F39F1DC01A05FBE4FF0E0E0E02C91121313C012962C911297222371F0EA
:201FE0009F01220F331F2E0F3F1FF901E05FFE4FE80FF91FEF2B41F482E053C0319613965A
:20200000EA30F10529F7F8CF280F391FF901EF5EFE4F10814B837A8369839D838C831C0112
:20202000B2E02B0E311CFC0101850F5F0187D12C412C512C32015394FF24F394FD0CAC812E
:20204000BD811C968C911C978D1508F4DAC012968D919C91DC01ED91FC91048CF58DE02D8E
:20206000602F0995B1E040EC60E0FB1611F040E860E4EC81FD8182819381DC01ED91FC91CE
:20208000068CF78DE02D0995212F4B8169817A81C1010E947E07C1010E9474071F3FC9F49B
:2020A00080E00F900F900F900F900F90DF91CF911F910F91FF90EF90DF90CF90BF90AF901B
:2020C0009F908F907F906F905F904F903F902F900895B1E0BF1568F4EC81FD8185819681E2
:2020E000A781B0850196A11DB11D85839683A783B0870E9413034B015C01AC81BD811A9662
:20210000CD90DC900E94461BA30192010E94D31C9B01AC01D6010E94F21CA30192010E9482
:20212000D31C2C0D3D1D820E931EA11CB11CDF2C0E941303A5019401261B370B480B590B1A
:20214000CA01B90116161706180619060CF074CFC1010E946A07882359F3AC81BD81129656
:202160008D919C91DC01ED91FC910480F581E02D50E040E070E060E009958823C9F2C1017F
:202180000E946007E82EEC81FD8182819381DC01ED91FC9102A0F3A1E02D0995C82EEC81F2
:2021A000FD8182819381DC01ED91FC9106A0F7A1E02D0995F82EEC81FD8182819381DC01B4
:2021C000ED91FC9100A4F1A5E02D09951E110AC0EC81FD8194819C1105C087FF03C00F1537
:2021E00009F45ECF87FDA4CFEC81FD81EE0DF11D85858F119DCF4E2D6F2DC1010E94A00792
:2022000097CF85E04ECFEF92FF920F931F93CF93DF93EC018B01F42E02960E946007E82E4A
:202220004F2DB801CE010E94C80FF82E82E0F81619F0E5E0FE1222C0F8016081CE010E9480
:20224000820CF80191818C819817C1F083E080933A02808180933B024E2D6181CE010E94A7
:20226000B70C2C81F801418162E0CE01DF91CF911F910F91FF90EF900C94330C8F2DDF91E9
:20228000CF911F910F91FF90EF9008958F929F92AF92BF92CF92DF92EF92FF92CF93DF9347
:2022A000FC012789308D232BB9F1EC010E9413034B015C0189E0C82ED12CE12CF12CE8817F
:2022C000F9810488F589E02DCE010995882321F10E941303AB01BC01481959096A097B0968
:2022E0008F89988DB0E0A0E084179507A607B707F8F00E94461BA70196010E94D31C9B0198
:20230000AC012F5F3F4F4F4F5F4FA4E6B0E00E94F21C0E94E002D3CF81E0DF91CF91FF90F8
:20232000EF90DF90CF90BF90AF909F908F90089580E0F3CF0F931F93CF93FC0182819381EB
:2023400040E054E264EF70E084309105C1F040E052E16AE770E08330910589F040E059E07A
:202360006DE370E08230910551F040E452E46FE070E0019721F440E854E86EE170E0A48166
:20238000B58186819781009709F466C08130910509F45EC08230910509F45CC0039709F0D8
:2023A0005BC08CE000E012E12AE730E090E0401751076207730740F436952795179507959D
:2023C0009F5F9630A1F797E021E0292730E5119709F430E72695282B232B208790959170DF
:2023E0009187CFB7F89480912402811127C0E0E9F0E08491E4EAF0E09491E82FF0E0EE0FAE
:20240000FF1FE859FF4FA591B491EC91E92321F461E08AE00E945C0261E08AE00E948A0272
:202420008CB580618CBD8CB580648CBD61E08DE00E948A0261E08BE00E948A0280912402D6
:202440008F5F80932402CFBFCF911F910F91089584E0A8CF88E0A6CF80E0A4CFCF92DF921D
:20246000EF92FF920F931F93CF93DF93FC018481982F9F7739F48078806284831182108210
:2024800013821282848185FD0CC0F0E0E0E0CF01DF91CF911F910F91FF90EF90DF90CF9064
:2024A00008957A018B016F01C081D181209709F16E817F8160177107D1F00115110541F0C8
:2024C0006115710529F0C8010E94851E882379F08D81882371F028E08202C0011124C80F62
:2024E000D91FE4CFF983E883FB83EA8325C0FE01CECFE701EC81FD818A819B810896E81747
:20250000F90718F23897D7011596FC93EE931497309709F4BACFE601AA81BB81109711F35E
:20252000CF018A1B9B0B23E0959587952A95E1F715968C93FB83EA8315821482178306839B
:20254000A6CF2F923F924F925F926F927F928F929F92AF92BF92CF92DF92EF92FF920F9326
:202560001F93CF93DF93CDB7DEB7CB53D3400FB6F894DEBF0FBECDBF9091B1008091B100B0
:202580008B7F8093B1008091B1008D7F8093B1008091B1008E7F8093B100809164008064EF
:2025A0008093640080917A008F7780937A0080916400816080936400809164008860809349
:2025C0006400809164008062809364008091640080688093640083B7817F83BFF89483B7B3
:2025E000816083BF7894889583B78E7F83BF7894809164008E7F8093640080917A0080688E
:2026000080937A009093B100809164008F7B8093640080916400877F8093640080916400FC
:202620008F7D80936400809164008F778093640090E080E00E94CB1CC75CDC4F8883C95357
:20264000D340C0903802D09039020E9413031B012C0124EC220E29E0321E411C511C460197
:2026600032E0830E911CAE014F5F5F4F5A01360151EF651A5EEF750AC601825F9E4FC65C2B
:20268000DC4F99838883CA53D3400E941303A2019101261B370B480B590BCA01B9011616E0
:2026A0001706180619060CF09AC1C4010E946A07882359F33AEFC85CDC4F3883C853D34039
:2026C00075018E011D5F9E012F5C3C4FAE01495C5C4FBE01685C7C4FC6010E94690D8823ED
:2026E000A1F2C85CDC4F8881C853D340882309F490C190913A0291118CC1C95CDC4F188193
:20270000C753D3408150C82ED12CA6016BE372E0CE018F5F9D4F0E947C1EE1E0F2E0EC0F0E
:20272000FD1FEC0DFD1D1082E0913802F0913902DF01A05FBE4F90E080E02C911213FDC115
:2027400012962C911297222309F4F7C19C01220F331F820F931F805F9E4FE80FF91F818131
:202760008823D1F062E072E0CE018F5F9D4F0E94851E809721F461E086E00E945C0265E053
:2027800072E0CE018F5F9D4F0E94851E809721F460E086E00E945C0280E093E08C0F9D1FFD
:2027A0000D96C050DD4F99838883C050D340CE5FDC4F99838883C250D34080E093E08C0FDE
:2027C0009D1FC196CC5FDC4F99838883C450D340CA5FDC4F99838883C650D340C45FDC4F50
:2027E0008881CC50D3408078C45FDC4F8883CC50D340AE015D5F69E072E0CA0108960E9410
:202800002E12FC01892B89F09481907898609483C75CDC4F2881C953D340822F90E0B0E04B
:20282000A0E080839183A283B3830091E8041091E904AE015D5F6FE072E0CA0108960E9484
:202840002E12FC01892B79F0A801012E000C660B770B9481907817FD79C19860948340830A
:202860005183628373838EE480937C0062E070E080E090E00E94E00280917A008064809340
:202880007A0080917A0086FDFCCF1091780090907900AE015D5F64E172E0CA0108960E9426
:2028A0002E126C01009731F1DC0114968C91149780788C6014968C93292D30E0322F2227A6
:2028C000032E000C440B550B212B60E070E381E190E00E94D31CCA01B9010E94AE1B20E0DA
:2028E00030E04AE754E40E94A31DF601608371838283938386E00E943302AE015D5F6CE11F
:2029000072E0019709F02CC1CA0108960E942E12FC01892B41F0948190789460948382E030
:2029200092E0918380831982CE019E5FCF5CDC4F99838883C153D340CD5CDC4FB982A8824A
:20294000C353D340CB5CDC4F19821882C553D340BE016F5C7C4F80E093E08C0F9D1F08967F
:202960000E945209F50101900020E9F731978F010A191B090A3F78F5C0903802D090390259
:20298000F601E05FFE4F30E020E08081813009F0F6C08281882309F4F2C0C901880F991FCD
:2029A000820F931F805F9E4F8C0D9D1D892B09F4EDC010923A02A8015527B5018BE392E0BE
:2029C0000E947C1E61E0600FD60114962C9141E0C6010E94330C8AED94E00E941407C55C3B
:2029E000DC4F0FB6F894DEBF0FBECDBFDF91CF911F910F91FF90EF90DF90CF90BF90AF90DB
:202A00009F908F907F906F905F904F903F902F900895CF5CDC4F9881C153D3409F3F09F0F4
:202A200034CE823008F431CE90913A02913009F02CCED60114969C91C95CDC4F2881C75315
:202A4000D340921709F421CE7DEFF72EF80E0DE312E0F801E12CEF1430F48191981709F46A
:202A600014CEE394F8CFC4010E946007482FC95CDC4F6881C753D340C6010E94B70CF3016B
:202A80008081882381F0E12CEF1460F4C4010E946007D8016D918D01482FC6010E94B70CDF
:202AA000E394F2CFEF2CD601ED91FC910680F781E02D40913B026CE372E0C6010995882317
:202AC00099F0B2E0B0933A02F6012481C95CDC4F4881C753D340C85CDC4F6881C853D34014
:202AE000C6010E94330CD1CDC65CDC4FA881B981CA53D3408C91E81608F0C7CDF301808114
:202B0000882309F4C2CDEF2DF0E0E65CFD4FD60114968C918383C85CDC4F6881C853D340FA
:202B20006F5FC85CDC4F6883C853D340C95CDC4F2881C753D3404FEFD3CF019613968A305F
:202B4000910509F0FACDF0E0E0E009CE9A60948370956095509541955F4F6F4F7F4F7FCE6B
:202B6000CA0108960E942E12FC01892B09F4DBCE948190789460948385E092E0D2CE2F5F86
:202B80003F4F33962A30310509F0FFCED601ED91FC910480F581E02D61E0C6010995811167
:202BA00008CF19CF1F920F920FB60F9211242F933F934F935F936F937F938F939F93AF9357
:202BC000BF93EF93FF9383E394E00E946001FF91EF91BF91AF919F918F917F916F915F91C2
:202BE0004F913F912F910F900FBE0F901F9018951F920F920FB60F9211242F938F939F93FB
:202C0000EF93FF93E0914304F09144048081E0914904F0914A0482FD1BC0908180914C04C5
:202C20008F5F8F7320914D04821741F0E0914C04F0E0ED5CFB4F958F80934C04FF91EF911D
:202C40009F918F912F910F900FBE0F901F9018958081F4CF1F920F920FB60F9211242F938A
:202C60003F938F939F93AF93BF938091300290913102A0913202B091330230912F0223E033
:202C8000230F2D3758F50196A11DB11D20932F028093300290933102A0933202B0933302D0
:202CA0008091340290913502A0913602B09137020196A11DB11D8093340290933502A09399
:202CC0003602B0933702BF91AF919F918F913F912F910F900FBE0F901F90189526E8230F29
:202CE0000296A11DB11DD2CF1F920F920FB60F9211242F933F934F935F936F937F938F9384
:202D00009F93AF93BF93EF93FF93E0910201F09103010995FF91EF91BF91AF919F918F9152
:202D20007F916F915F914F913F912F910F900FBE0F901F9018951F920F920FB60F921124CF
:202D40002F933F934F935F936F937F938F939F93AF93BF93EF93FF93E0910001F091010106
:202D60000995FF91EF91BF91AF919F918F917F916F915F914F913F912F910F900FBE0F904A
:202D80001F9018951F920F920FB60F9211248F930FB6F894A895809160008861809360006D
:202DA000109260000FBE8F910F900FBE0F901F9018951F920F920FB60F9211242F933F933C
:202DC0004F935F936F937F938F939F93AF93BF93EF93FF938091020090910300049709F044
:202DE000C2C080911B000E94330221E0892B09F420E080911E00922F9827281719F083B171
:202E00008F5F83B982B18917F1F184B12DE1803508F42BE084B1820F84B992B984B1803A97
:202E200008F46EC086B197B19695879597B986B983B1853028F086B197B1986097B986B90C
:202E400084B1805A84B913B885B1882309F480C088B18F5F88B98C3008F452C086B197B18C
:202E6000982F9F73892F86958695887028E0280F281769F0E82FF0E0E75AFE4F30819317EC
:202E800039F08F5FF5CF84B18C5E84B9C7CF80E090E1899F9001112486B197B136E09695E6
:202EA00087953A95E1F7482F9595879595958795887098E0980F981749F0E82FF0E0E75A25
:202EC000FE4F5081451719F08F5FF5CF80E0822B90916D00911125C080936C0090916C008F
:202EE000973020F090916C009434D8F015B8809110009091110001969093110080931000D0
:202F0000FF91EF91BF91AF919F918F917F916F915F914F913F912F910F900FBE0F901F9097
:202F20001895E0916D0091E09E0F90936D00F0E081A790916D0080916C00981738F015B8B1
:202F400081E080B990E080E00E94220318B8D8CF86B197B188339B4099F681E085B918B8B6
:202F600010926D00CDCF8091020090910300039739F68091700091E0980F909370008111E8
:202F800013C0E0916E008091FF00E817A8F090E080E00E942203809114009091150001964F
:202FA000909315008093140080917000883008F4A7CF10927000A4CFF0E0EF58FF4F60813C
:202FC00070E080916F0091E0980F90936F0002C0759567958A95E2F7617080911C000E9417
:202FE0005C0280916F008630F8F210926F0080916E008F5F80936E00D7CFE3E3F4E013827F
:20300000128288EE93E0A0E0B0E084839583A683B78389E791E09183808385EC90E09587AC
:20302000848784EC90E09787868780EC90E0918B808B81EC90E0938B828B82EC90E0958B71
:20304000848B86EC90E0978B868B118E128E138E148EA0EDB4E013961C921E92129715964E
:203060001C921E92149717961C921E9216978BE891E011969C938E9380E518968C931897D3
:2030800019961C921997EAEDF4E0138212828FEF84838287838714861586118A108A138AB0
:2030A000128A158A148A108E178AB28FA18F9AE0938F25EA31E0318320831092F80592E063
:2030C000948F858F0895CF93DF9300D000D000D0CDB7DEB7789484B5826084BD84B581603D
:2030E00084BD85B5826085BD85B5816085BD80916E00816080936E0010928100809181003E
:2031000082608093810080918100816080938100809180008160809380008091B100846087
:203120008093B1008091B00081608093B00080917A00846080937A0080917A0082608093EA
:203140007A0080917A00816080937A0080917A00806880937A001092C100E0914304F09160
:20316000440482E08083E0913F04F09140041082E0914104F091420480E1808310924B04C5
:20318000E0914704F091480486E08083E0914504F0914604808180618083E0914504F09198
:2031A0004604808188608083E0914504F0914604808180688083E0914504F09146048081E2
:2031C0008F7D808390E080E00E94CB1C182F61E086E00E948A028EE291E00E94D519FC01FD
:2031E0008AED94E09383828314831582168217821086118688EC90E09387828783E08487C8
:20320000AF01435F5F4F80E091E0DA019C011D9221503040E1F7DF01A25FBE4F8EE18C9381
:20322000119681E08C931396CF01805D9E4F1C921396A817B907D9F78DE691E09183808383
:20324000F0933902E093380289E291E00E94CF01612F70E090E080E04AE00E94A5080E94EA
:20326000F3080091380210913902D80112968D919C91DC01ED91FC910190F081E02D09954B
:20328000882309F48FC0F801F48082819381DC01ED91FC910688F789E02D6F2D0995F8017D
:2032A00082819381DC01ED91FC91028CF38DE02D6F2D0995F801F482E25FFE4F8EE180834B
:2032C00088E191E00E94FB0867E18AED94E00E947C034BE766E08AED94E00E943A0340E8B1
:2032E00067E08AED94E00E943A0340E068E08AED94E00E943A031092F90583E091E00E9475
:20330000CF0181E090E00E94030C84EF91E09093F2048093F10480EE90E00E94FB088091C2
:203320000E0190910F01A09110018C839D83AE83BE016C5F7F4F8AED94E00E94B40343E0EC
:2033400050E065EC70E08E010F5F1F4FC8010E949E1BB8018AED94E00E94B40385ED90E02E
:203360000E94FB088EEC90E00E94CF018091FB059091FC05009711F48FEF95E09801281BAE
:20338000390BC9010E94030C00E010E00E94A11201151105D9F30E944C018823B9F30E9469
:2033A0000000F4CF8DE191E08DCF0F931F93CF93DF938230910510F482E090E0E091FD0556
:2033C000F091FE0530E020E0B0E0A0E0309799F42115310509F44AC0281B390B2430310571
:2033E000D8F58A819B816115710589F1FB0193838283FE0111C04081518102811381481783
:203400005907E0F04817590799F4109761F012960C93129713961C933296CF01DF91CF9188
:203420001F910F9108950093FD051093FE05F4CF2115310551F04217530738F0A901DB0193
:203440009A01BD01DF01F801C1CFEF01F9CF9093FE058093FD05CDCFFE01E20FF31F819305
:2034600091932250310939832883D7CF2091FB053091FC05232B41F42091060130910701F8
:203480003093FC052093FB0520910401309105012115310541F42DB73EB740910801509103
:2034A0000901241B350BE091FB05F091FC05E217F307A0F42E1B3F0B2817390778F0AC01E2
:2034C0004E5F5F4F2417350748F04E0F5F1F5093FC054093FB05819391939FCFF0E0E0E01A
:2034E0009CCFCF93DF930097E9F0FC01329713821282A091FD05B091FE05ED0130E020E0B9
:203500001097A1F420813181820F931F2091FB053091FC052817390709F061C0F093FC0549
:20352000E093FB05DF91CF910895EA01CE17DF07E8F54A815B819E0141155105B1F7E90194
:20354000FB83EA8349915991C40FD51FEC17FD0761F4808191810296840F951FE9019983A1
:203560008883828193819B838A83F0E0E0E012968D919C9113970097B9F52D913C91119759
:20358000CD010296820F931F2091FB053091FC052817390739F6309751F51092FE0510920D
:2035A000FD05B093FC05A093FB05BCCFD383C28340815181840F951FC817D90761F44E5FD1
:2035C0005F4F88819981480F591F518340838A819B81938382832115310509F0B0CFF0930B
:2035E000FE05E093FD059ECFFD01DC01C0CF13821282D7CF8F929F92AF92BF92CF92DF92F7
:20360000EF92FF92CF93DF93EC01688179818A819B81611571058105910521F464E279ED04
:203620008BE597E02DE133EF41E050E00E94D31C49015A019B01AC01A7EAB1E40E94F21CCD
:203640006B017C01ACEEB4EFA50194010E94001DC60ED71EE81EF91EF7FE06C081E0C81A66
:20366000D108E10880E8F80AC882D982EA82FB82C701B6019F77DF91CF91FF90EF90DF90AE
:20368000CF90BF90AF909F908F9008958F929F92AF92BF92CF92DF92EF92FF9260910A018E
:2036A00070910B0180910C0190910D01611571058105910521F464E279ED8BE597E02DE1F2
:2036C00033EF41E050E00E94D31C49015A019B01AC01A7EAB1E40E94F21C6B017C01ACEE9F
:2036E000B4EFA50194010E94001DC60ED71EE81EF91EF7FE06C081E0C81AD108E10880E81F
:20370000F80AC0920A01D0920B01E0920C01F0920D01C701B6019F77FF90EF90DF90CF905C
:20372000BF90AF909F908F90089560930A0170930B0180930C0190930D010895FB01DC013C
:2037400002C005900D9241505040D8F708950E94E91B08F481E00895E89409C097FB3EF43D
:2037600090958095709561957F4F8F4F9F4F9923A9F0F92F96E9BB279395F69587957795C1
:203780006795B795F111F8CFFAF4BB0F11F460FF1BC06F5F7F4F8F4F9F4F16C0882311F037
:2037A00096E911C0772321F09EE8872F762F05C0662371F096E8862F70E060E02AF09A9572
:2037C000660F771F881FDAF7880F9695879597F90895990F0008550FAA0BE0E8FEEF1616B1
:2037E0001706E807F907C0F012161306E407F50798F0621B730B840B950B39F40A2661F085
:20380000232B242B252B21F408950A2609F4A140A6958FEF811D811D08950E94201C0C94EB
:20382000911C0E94831C38F00E948A1C20F0952311F00C947A1C0C94801C11240C94C51C39
:203840000E94A21C70F3959FC1F3950F50E0551F629FF001729FBB27F00DB11D639FAA27F2
:20386000F00DB11DAA1F649F6627B00DA11D661F829F2227B00DA11D621F739FB00DA11D31
:20388000621F839FA00D611D221F749F3327A00D611D231F849F600D211D822F762F6A2F82
:2038A00011249F5750409AF0F1F088234AF0EE0FFF1FBB1F661F771F881F91505040A9F735
:2038C0009E3F510580F00C947A1C0C94C51C5F3FE4F3983ED4F3869577956795B795F79581
:2038E000E7959F5FC1F7FE2B880F911D9695879597F9089597F99F6780E870E060E0089589
:203900009FEF80EC089500240A941616170618060906089500240A94121613061406050613
:203920000895092E0394000C11F4882352F0BB0F40F4BF2B11F460FF04C06F5F7F4F8F4F94
:203940009F4F089557FD9058440F551F59F05F3F71F04795880F97FB991F61F09F3F79F03C
:2039600087950895121613061406551FF2CF4695F1DF08C0161617061806991FF1CF869591
:203980007105610508940895E894BB2766277727CB0197F90895F999FECF92BD81BDF89A12
:2039A000992780B50895052E97FB1EF400940E94EA1C57FD07D00E94051D07FC03D04EF45B
:2039C0000C94EA1C50954095309521953F4F4F4F5F4F089590958095709561957F4F8F4FB4
:2039E0009F4F08950E94271DA59F900DB49F900DA49F800D911D11240895B7FF0C94F21CD1
:203A00000E94F21C821B930B0895A1E21A2EAA1BBB1BFD010DC0AA1FBB1FEE1FFF1FA21766
:203A2000B307E407F50720F0A21BB30BE40BF50B661F771F881F991F1A9469F760957095E9
:203A4000809590959B01AC01BD01CF010895A29FB001B39FC001A39F700D811D1124911D73
:203A6000B29F700D811D1124911D08955058BB27AA270E944E1D0C94911C0E94831C38F03C
:203A80000E948A1C20F039F49F3F19F426F40C94801C0EF4E095E7FB0C947A1CE92F0E9417
:203AA000A21C58F3BA17620773078407950720F079F4A6F50C94C41C0EF4E0950B2EBA2FF1
:203AC000A02D0B01B90190010C01CA01A0011124FF27591B99F0593F50F4503E68F11A16FE
:203AE000F040A22F232F342F4427585FF3CF469537952795A795F0405395C9F77EF41F160E
:203B0000BA0B620B730B840BBAF09150A1F0FF0FBB1F661F771F881FC2F70EC0BA0F621FCF
:203B2000731F841F48F4879577956795B795F7959E3F08F0B0CF9395880F08F09927EE0F50
:203B40009795879508950E94B71D0C94911C0E948A1C58F00E94831C40F029F45F3F29F0E8
:203B60000C947A1C51110C94C51C0C94801C0E94A21C68F39923B1F3552391F3951B550BC9
:203B8000BB27AA2762177307840738F09F5F5F4F220F331F441FAA1FA9F335D00E2E3AF06A
:203BA000E0E832D091505040E695001CCAF72BD0FE2F29D0660F771F881FBB1F261737074A
:203BC0004807AB07B0E809F0BB0B802DBF01FF2793585F4F3AF09E3F510578F00C947A1C66
:203BE0000C94C51C5F3FE4F3983ED4F3869577956795B795F7959F5FC9F7880F911D969509
:203C0000879597F90895E1E0660F771F881FBB1F621773078407BA0720F0621B730B840B35
:203C2000BA0BEE1F88F7E09508950E94AA1C88F09F5798F0B92F9927B751B0F0E1F0660F2D
:203C4000771F881F991F1AF0BA95C9F714C0B13091F00E94C41CB1E008950C94C41C672F5A
:203C6000782F8827B85F39F0B93FCCF3869577956795B395D9F73EF4909580957095619555
:203C80007F4F8F4F9F4F08950E94E91B08F48FEF089597FB072E16F4009407D077FD09D0A7
:203CA0000E945D1E07FC05D03EF4909581959F4F0895709561957F4F0895AA1BBB1B51E1E4
:203CC00007C0AA1FBB1FA617B70710F0A61BB70B881F991F5A95A9F780959095BC01CD01C9
:203CE0000895EE0FFF1F0590F491E02D099481E090E0F8940C948E1EFB01DC0102C0019073
:203D00000D9241505040D8F70895FB01DC018D91019080190110D9F3990B0895F894FFCFDE
:203D20001F031F030000FF0580000100000095C4080000803FCDCCCC3D6F12833A95BFD690
:203D4000337D1D9026B3CE010CCDCCCC3D0AD7233C17B7D13877CC2B329595E6241FB14FA6
:203D60000A000020410000C84200401C4620BCBE4CCA1B0E5AAEC59D740D0E131516191AE9
:203D80001C232526292A2C3234000000000F0D0311560E2606000000008201E2000F01EA95
:203DA0000140011E01320100000000940690068C069A117806A3069F069B065B064A0630B4
:203DC0000600000000150F9204D20EF80320034F071407E5061C0746119703DF06DC06D915
:203DE00006D606CF06E206CC06C906C606C306BF06BB06B706CF03B106AD06A9060D0A00A9
:203E000022225C5C6208660C6E0A720D7409006E756C6C00652D00747275650066616C73A3
:203E200065004F4E004F46460076616C76650072737369006261747465727900737461740F
:203E400075730000FFFFFFFFFFFFFFFFFFFFFFFFFFFFFFFFFFFFFFFFFFFFFFFFFFFFFFFF96
:203E6000FFFFFFFFFFFFFFFFFFFFFFFFFFFFFFFFFFFFFFFFFFFFFFFFFFFFFFFFFFFFFFFF62
:203E800000747275650066616C7365004F4E004F46460076616C766500727373690062613D
:203EA0007474657279007374617475730000FFFFFFFFFFFFFFFFFFFFFFFFFFFFFFFFFFFF38
:203EC000FFFFFFFFFFFFFFFFFFFFFFFFFFFFFFFFFFFFFFFFFFFFFFFFFFFFFFFFFFFFFFFF02
:203EE000FFFFFFFFFFFFFFFFFFFFFFFFFFFFFFFFFFFFFFFFFFFFFFFFFFFFFFFFFFFFFFFFE2
:203F000005D03EF4909581959F4F0895709561957F4F0895AA1BBB1B51E107C0AA1FBB1F37
:203F2000A617B70710F0A61BB70B881F991F5A95A9F780959095BC01CD010895EE0FFF1F18
:203F40000590F491E02D099481E090E0F8940C94BB1FFB01DC0102C001900D9241505040DA
:203F6000D8F70895FB01DC018D91019080190110D9F3990B0895F894FFCF1F031F030000F8
:203F8000320680000100000095C4080000803FCDCCCC3D6F12833A95BFD6337D1D9026B308
:203FA000CE010CCDCCCC3D0AD7233C17B7D13877CC2B329595E6241FB14F0A00002041000F
:203FC00000C84200401C4620BCBE4CCA1B0E5AAEC59D740D0E131516191A1C232526292A15
:203FE0002C323400000000E40DD8112B0F4006000000008201E2000F01EA0140011E0132E3
:20400000010000000021032F073703200320070407DC06000000009A068F068B066F127716
:20402000067807740770076B077106570600000000EA0FAC04A70F12043A032408E907BA3B
:2040400007F1071B12B103B407B107AE07AB07A407B707A1079E079B079807940790078CF1
:2040600007E903860782077E070D0A0022225C5C6208660C6E0A720D7409006E756C6C0094
:20408000652D00747275650066616C7365004F4E004F46460076616C76650072737369006C
:2040A00062617474657279007374617475730000FFFFFFFFFFFFFFFFFFFFFFFFFFFFFFFF71
:2040C000FFFFFFFFFFFFFFFFFFFFFFFFFFFFFFFFFFFFFFFFFFFFFFFFFFFFFFFFFFFFFFFF00
:2040E000FFFFFFFFFFFFFFFFFFFFFFFFFFFFFFFFFFFFFFFFFFFFFFFFFFFFFFFFFFFFFFFFE0
:20410000FFFFFFFFFFFFFFFFFFFFFFFFFFFFFFFFFFFFFFFFFFFFFFFFFFFFFFFFFFFFFFFFBF
:20412000FFFFFFFFFFFFFFFFFFFFFFFFFFFFFFFFFFFFFFFFFFFFFFFFFFFFFFFFFFFFFFFF9F
:207800000C94343C0C94513C0C94513C0C94513C0C94513C0C94513C0C94513C0C94513C1D
:207820000C94513C0C94513C0C94513C0C94513C0C94513C0C94513C0C94513C0C94513CE0
:207840000C94513C0C94513C0C94513C0C94513C0C94513C0C94513C0C94513C0C94513CC0
:207860000C94513C0C94513C11241FBECFEFD8E0DEBFCDBF11E0A0E0B1E0ECE9FFE702C07E
:2078800005900D92A230B107D9F712E0A2E0B1E001C01D92AD30B107E1F70E942D3D0C94CC
:2078A000CC3F0C94003C982F9595959595959595905D8F708A307CF0282F295A8091C000B5
:2078C00085FFFCCF9093C6008091C00085FFFCCF2093C6000895282F205DF0CF982F8091CF
:2078E000C00085FFFCCF9093C6000895EF92FF920F931F93EE24FF2487018091C00087FD7B
:2079000017C00894E11CF11C011D111D81E4E81682E4F8068FE0080780E0180770F3E09106
:207920000401F091050109958091C00087FFE9CF8091C6001F910F91FF90EF9008950E949A
:20794000763C982F8091C00085FFFCCF9093C60091362CF490330CF09053892F08959755DB
:20796000892F08951F930E949F3C182F0E949F3C1295107F810F1F9108951F93182F882308
:2079800021F00E94763C1150E1F71F9108951F93182F0E94763C803249F0809103018F5FC1
:2079A000809303018530C1F01F9108958091C00085FFFCCF84E18093C6008091C00085FF4A
:2079C000FCCF1093C6008091C00085FFFCCF80E18093C6001F910895E0910401F0910501CF
:2079E00009951F9108950E94763C803241F0809103018F5F80930301853081F00895809177
:207A0000C00085FFFCCF84E18093C6008091C00085FFFCCF80E18093C6000895E0910401AC
:207A2000F09105010995089540E951E08823A1F02D9A28EE33E0FA013197F1F72150304072
:207A4000D1F72D9828EE33E0FA013197F1F721503040D1F7815061F708953F924F925F92B3
:207A60006F927F928F929F92AF92BF92CF92DF92EF92FF920F931F93CF93DF93000080E1A3
:207A80008093C4001092C50088E18093C10086E08093C2005098589A259A81E00E94143D43
:207AA00024E1F22E9EE1E92E85E9D82E0FE0C02E10E1B12EAA24A394B1E49B2EA6E58A2E44
:207AC000F2E57F2EE0E26E2E79E4572E63E5462E50E5352E0E94763C8033B1F18133B9F187
:207AE000803409F46FC0813409F476C0823409F485C0853409F488C0803531F1823521F128
:207B0000813511F1853509F485C0863509F48DC0843609F496C0843709F403C1853709F46A
:207B200072C1863709F466C0809103018F5F80930301853079F6E0910401F0910501099559
:207B40000E94763C803351F60E94F33CC3CF0E94763C803249F78091C00085FFFCCFF0928C
:207B6000C6008091C00085FFFCCF9092C6008091C00085FFFCCF8092C6008091C00085FFEA
:207B8000FCCF7092C6008091C00085FFFCCF6092C6008091C00085FFFCCF5092C6008091A1
:207BA000C00085FFFCCF4092C6008091C00085FFFCCF3092C6008091C00085FFFCCFB09214
:207BC000C60088CF0E94763C863808F4BDCF0E94763C0E94F33C7ECF0E94763C803809F473
:207BE0009CC0813809F40BC1823809F43CC1883909F48FC080E00E94C73C6CCF84E10E949F
:207C0000BD3C0E94F33C66CF85E00E94BD3C0E94F33C60CF0E94763C809306010E94763CA3
:207C2000809307010E94F33C55CF0E94763C803309F41DC183E00E94BD3C80E00E94C73C4F
:207C400049CF0E94763C809309020E94763C8093080280910C028E7F80930C020E94763C88
:207C6000853409F415C18091080290910902892B89F000E010E00E94763CF801E85FFE4F53
:207C800080830F5F1F4F80910802909109020817190788F30E94763C803209F045CF8091E0
:207CA0000C0280FF01C16091060170910701660F771F7093070160930601A0910802B091E8
:207CC00009021097C9F0E8E0F1E09B01AD014E0F5F1FF999FECF32BD21BD819180BDFA9A6C
:207CE000F99A2F5F3F4FE417F50799F76A0F7B1F70930701609306018091C00085FFFCCF16
:207D0000F092C6008091C00085FFFCCFB092C600E1CE83E00E94C73CDDCE82E00E94C73C8A
:207D2000D9CE0E94763C809309020E94763C809308028091060190910701880F991F909306
:207D40000701809306010E94763C853409F4A6C080910C028E7F80930C020E94763C80323E
:207D600009F0B8CE8091C00085FFFCCFF092C600609108027091090261157105B9F140E05F
:207D800050E080910C02A82FA170B82FB27011C0BB2309F45CC0E0910601F0910701319613
:207DA000F0930701E09306014F5F5F4F46175707E8F4AA2369F3F999FECF209106013091CA
:207DC000070132BD21BDF89A90B58091C00085FFFCCF9093C6002F5F3F4F30930701209354
:207DE00006014F5F5F4F4617570718F38091C00085FDE5CE8091C00085FFF8CFE0CE81E029
:207E00000E94C73C67CE0E94763C803209F08CCE8091C00085FFFCCFF092C6008091C000F6
:207E200085FFFCCFE092C6008091C00085FFFCCFD092C6008091C00085FFFCCFC092C6003B
:207E40008091C00085FFFCCFB092C60043CEE0910601F091070194918091C00085FFFCCFA3
:207E60009093C6009CCF80E10E94C73C33CE0E94763C0E94763C182F0E94763C112309F433
:207E800083C0113009F484C08FE00E94C73C22CE80910C02816080930C02E5CE80910C0226
:207EA000816080930C0259CF809107018823880F880B8A2180930B0280910601909107019E
:207EC000880F991F90930701809306018091080280FF09C0809108029091090201969093AA
:207EE000090280930802F894F999FECF1127E0910601F0910701C8E0D1E0809108029091A1
:207F00000902103091F40091570001700130D9F303E000935700E895009157000170013067
:207F2000D9F301E100935700E895099019900091570001700130D9F301E000935700E8954C
:207F40001395103498F011270091570001700130D9F305E000935700E8950091570001707A
:207F60000130D9F301E100935700E8953296029709F0C7CF103011F00296E5CF11248091F8
:1E7F8000C00085FFB9CEBCCE8EE10E94C73CA2CD85E90E94C73C9ECDF894FFCF8000B3
:00000001FF
